:100000000FED0DBF00270AB90FE007B909B144D0C1
:100010002BD0FCCF0027613049F455FD016050FD25
:10002000026045FD046040FD08600895623049F4B7
:1000300056FD016051FD026046FD046041FD08600F
:100040000895643049F454FD016052FD026044FD9E
:10005000046042FD08600895683029F453FD026091
:1000600043FD0860089508956F937F9372E361E004
:100070006DB9D0DF00956EB908B923D060950095B1
:100080006EB908B91ED06095660F603189F77A9510
:1000900071F77F916F9108950F930F7009D0402FE2
:1000A0000F91069506950695069502D0502F089556
:1000B000E6EFF0E0E00F0491089503D01197E9F71F
:1000C0000895AF93BF93AFEFB0E01197F1F7BF91F1
:1000D000AF9108950000AF93BF93A5E1B0E01197F1
:1000E000F1F7BF91AF91089500000F9304E00A95D6
:1000F000F1F70F9108953F065B4F666D7D077F6FA7
:06010000777C395E797185
:00000001FF
